{
  "address": "0x258942Dd6091Cf65133c806468a13E20910ae061",
  "abi": [
    {
      "inputs": [
        {
          "internalType": "uint256",
          "name": "_index",
          "type": "uint256"
        }
      ],
      "name": "buyProduct",
      "outputs": [],
      "stateMutability": "payable",
      "type": "function"
    },
    {
      "inputs": [
        {
          "internalType": "uint256",
          "name": "_id",
          "type": "uint256"
        }
      ],
      "name": "deleteProduct",
      "outputs": [],
      "stateMutability": "nonpayable",
      "type": "function"
    },
    {
      "inputs": [
        {
          "internalType": "uint256",
          "name": "_id",
          "type": "uint256"
        },
        {
          "internalType": "string",
          "name": "_name",
          "type": "string"
        },
        {
          "internalType": "string",
          "name": "_image",
          "type": "string"
        },
        {
          "internalType": "string",
          "name": "_description",
          "type": "string"
        },
        {
          "internalType": "string",
          "name": "_location",
          "type": "string"
        },
        {
          "internalType": "uint256",
          "name": "_price",
          "type": "uint256"
        }
      ],
      "name": "editProduct",
      "outputs": [],
      "stateMutability": "nonpayable",
      "type": "function"
    },
    {
      "inputs": [],
      "name": "getProductsLength",
      "outputs": [
        {
          "internalType": "uint256",
          "name": "",
          "type": "uint256"
        }
      ],
      "stateMutability": "view",
      "type": "function"
    },
    {
      "inputs": [
        {
          "internalType": "uint256",
          "name": "_index",
          "type": "uint256"
        }
      ],
      "name": "readProduct",
      "outputs": [
        {
          "internalType": "address payable",
          "name": "",
          "type": "address"
        },
        {
          "internalType": "string",
          "name": "",
          "type": "string"
        },
        {
          "internalType": "string",
          "name": "",
          "type": "string"
        },
        {
          "internalType": "string",
          "name": "",
          "type": "string"
        },
        {
          "internalType": "string",
          "name": "",
          "type": "string"
        },
        {
          "internalType": "uint256",
          "name": "",
          "type": "uint256"
        },
        {
          "internalType": "uint256",
          "name": "",
          "type": "uint256"
        }
      ],
      "stateMutability": "view",
      "type": "function"
    },
    {
      "inputs": [
        {
          "internalType": "string",
          "name": "_name",
          "type": "string"
        },
        {
          "internalType": "string",
          "name": "_image",
          "type": "string"
        },
        {
          "internalType": "string",
          "name": "_description",
          "type": "string"
        },
        {
          "internalType": "string",
          "name": "_location",
          "type": "string"
        },
        {
          "internalType": "uint256",
          "name": "_price",
          "type": "uint256"
        }
      ],
      "name": "writeProduct",
      "outputs": [],
      "stateMutability": "nonpayable",
      "type": "function"
    }
  ],
  "transactionHash": "0x27b33ef46595b2601cb12b7929327bcb7869bfe5fe4e95ce769a0ace12863b6c",
  "args": [],
  "numDeployments": 2,
  "solcInputHash": "8853cf5afed2e0ddfdadd47a15121c9d",
  "bytecode": "0x60806040526000805573874069fa1eb16d44d622f2e0ca25eea172369bc1600160006101000a81548173ffffffffffffffffffffffffffffffffffffffff021916908373ffffffffffffffffffffffffffffffffffffffff16021790555034801561006957600080fd5b5061163d806100796000396000f3fe6080604052600436106100555760003560e01c80631155dfe51461005a5780638642269e146100855780638da8f27b146100a1578063d318395b146100ca578063ed90c7b7146100f3578063fffa7e2e1461011c575b600080fd5b34801561006657600080fd5b5061006f61015f565b60405161007c9190610a7a565b60405180910390f35b61009f600480360381019061009a9190610ad5565b610168565b005b3480156100ad57600080fd5b506100c860048036038101906100c39190610c48565b61031d565b005b3480156100d657600080fd5b506100f160048036038101906100ec9190610d33565b610451565b005b3480156100ff57600080fd5b5061011a60048036038101906101159190610ad5565b6105a8565b005b34801561012857600080fd5b50610143600480360381019061013e9190610ad5565b6106f3565b6040516101569796959493929190610ef0565b60405180910390f35b60008054905090565b60006002600083815260200190815260200160002060050154116101c1576040517f08c379a00000000000000000000000000000000000000000000000000000000081526004016101b890610fc7565b60405180910390fd5b600160009054906101000a900473ffffffffffffffffffffffffffffffffffffffff1673ffffffffffffffffffffffffffffffffffffffff166323b872dd336002600085815260200190815260200160002060000160009054906101000a900473ffffffffffffffffffffffffffffffffffffffff1660026000868152602001908152602001600020600501546040518463ffffffff1660e01b815260040161026c93929190611067565b6020604051808303816000875af115801561028b573d6000803e3d6000fd5b505050506040513d601f19601f820116820180604052508101906102af91906110d6565b6102ee576040517f08c379a00000000000000000000000000000000000000000000000000000000081526004016102e59061114f565b60405180910390fd5b6002600082815260200190815260200160002060060160008154809291906103159061119e565b919050555050565b60006040518060e001604052803373ffffffffffffffffffffffffffffffffffffffff16815260200187815260200186815260200185815260200184815260200183815260200182815250600260008054815260200190815260200160002060008201518160000160006101000a81548173ffffffffffffffffffffffffffffffffffffffff021916908373ffffffffffffffffffffffffffffffffffffffff16021790555060208201518160010190816103d891906113e8565b5060408201518160020190816103ee91906113e8565b50606082015181600301908161040491906113e8565b50608082015181600401908161041a91906113e8565b5060a0820151816005015560c082015181600601559050506000808154809291906104449061119e565b9190505550505050505050565b3373ffffffffffffffffffffffffffffffffffffffff166002600088815260200190815260200160002060000160009054906101000a900473ffffffffffffffffffffffffffffffffffffffff1673ffffffffffffffffffffffffffffffffffffffff16146104f5576040517f08c379a00000000000000000000000000000000000000000000000000000000081526004016104ec9061152c565b60405180910390fd5b8460026000888152602001908152602001600020600101908161051891906113e8565b508260026000888152602001908152602001600020600301908161053c91906113e8565b508360026000888152602001908152602001600020600201908161056091906113e8565b508160026000888152602001908152602001600020600401908161058491906113e8565b50806002600088815260200190815260200160002060050181905550505050505050565b3373ffffffffffffffffffffffffffffffffffffffff166002600083815260200190815260200160002060000160009054906101000a900473ffffffffffffffffffffffffffffffffffffffff1673ffffffffffffffffffffffffffffffffffffffff161461064c576040517f08c379a0000000000000000000000000000000000000000000000000000000008152600401610643906115be565b60405180910390fd5b60026000828152602001908152602001600020600080820160006101000a81549073ffffffffffffffffffffffffffffffffffffffff02191690556001820160006106979190610a04565b6002820160006106a79190610a04565b6003820160006106b79190610a04565b6004820160006106c79190610a04565b6005820160009055600682016000905550506000808154809291906106eb906115de565b919050555050565b60006060806060806000806002600089815260200190815260200160002060000160009054906101000a900473ffffffffffffffffffffffffffffffffffffffff16600260008a8152602001908152602001600020600101600260008b8152602001908152602001600020600201600260008c8152602001908152602001600020600301600260008d8152602001908152602001600020600401600260008e815260200190815260200160002060050154600260008f8152602001908152602001600020600601548580546107c790611215565b80601f01602080910402602001604051908101604052809291908181526020018280546107f390611215565b80156108405780601f1061081557610100808354040283529160200191610840565b820191906000526020600020905b81548152906001019060200180831161082357829003601f168201915b5050505050955084805461085390611215565b80601f016020809104026020016040519081016040528092919081815260200182805461087f90611215565b80156108cc5780601f106108a1576101008083540402835291602001916108cc565b820191906000526020600020905b8154815290600101906020018083116108af57829003601f168201915b505050505094508380546108df90611215565b80601f016020809104026020016040519081016040528092919081815260200182805461090b90611215565b80156109585780601f1061092d57610100808354040283529160200191610958565b820191906000526020600020905b81548152906001019060200180831161093b57829003601f168201915b5050505050935082805461096b90611215565b80601f016020809104026020016040519081016040528092919081815260200182805461099790611215565b80156109e45780601f106109b9576101008083540402835291602001916109e4565b820191906000526020600020905b8154815290600101906020018083116109c757829003601f168201915b505050505092509650965096509650965096509650919395979092949650565b508054610a1090611215565b6000825580601f10610a225750610a41565b601f016020900490600052602060002090810190610a409190610a44565b5b50565b5b80821115610a5d576000816000905550600101610a45565b5090565b6000819050919050565b610a7481610a61565b82525050565b6000602082019050610a8f6000830184610a6b565b92915050565b6000604051905090565b600080fd5b600080fd5b610ab281610a61565b8114610abd57600080fd5b50565b600081359050610acf81610aa9565b92915050565b600060208284031215610aeb57610aea610a9f565b5b6000610af984828501610ac0565b91505092915050565b600080fd5b600080fd5b6000601f19601f8301169050919050565b7f4e487b7100000000000000000000000000000000000000000000000000000000600052604160045260246000fd5b610b5582610b0c565b810181811067ffffffffffffffff82111715610b7457610b73610b1d565b5b80604052505050565b6000610b87610a95565b9050610b938282610b4c565b919050565b600067ffffffffffffffff821115610bb357610bb2610b1d565b5b610bbc82610b0c565b9050602081019050919050565b82818337600083830152505050565b6000610beb610be684610b98565b610b7d565b905082815260208101848484011115610c0757610c06610b07565b5b610c12848285610bc9565b509392505050565b600082601f830112610c2f57610c2e610b02565b5b8135610c3f848260208601610bd8565b91505092915050565b600080600080600060a08688031215610c6457610c63610a9f565b5b600086013567ffffffffffffffff811115610c8257610c81610aa4565b5b610c8e88828901610c1a565b955050602086013567ffffffffffffffff811115610caf57610cae610aa4565b5b610cbb88828901610c1a565b945050604086013567ffffffffffffffff811115610cdc57610cdb610aa4565b5b610ce888828901610c1a565b935050606086013567ffffffffffffffff811115610d0957610d08610aa4565b5b610d1588828901610c1a565b9250506080610d2688828901610ac0565b9150509295509295909350565b60008060008060008060c08789031215610d5057610d4f610a9f565b5b6000610d5e89828a01610ac0565b965050602087013567ffffffffffffffff811115610d7f57610d7e610aa4565b5b610d8b89828a01610c1a565b955050604087013567ffffffffffffffff811115610dac57610dab610aa4565b5b610db889828a01610c1a565b945050606087013567ffffffffffffffff811115610dd957610dd8610aa4565b5b610de589828a01610c1a565b935050608087013567ffffffffffffffff811115610e0657610e05610aa4565b5b610e1289828a01610c1a565b92505060a0610e2389828a01610ac0565b9150509295509295509295565b600073ffffffffffffffffffffffffffffffffffffffff82169050919050565b6000610e5b82610e30565b9050919050565b610e6b81610e50565b82525050565b600081519050919050565b600082825260208201905092915050565b60005b83811015610eab578082015181840152602081019050610e90565b60008484015250505050565b6000610ec282610e71565b610ecc8185610e7c565b9350610edc818560208601610e8d565b610ee581610b0c565b840191505092915050565b600060e082019050610f05600083018a610e62565b8181036020830152610f178189610eb7565b90508181036040830152610f2b8188610eb7565b90508181036060830152610f3f8187610eb7565b90508181036080830152610f538186610eb7565b9050610f6260a0830185610a6b565b610f6f60c0830184610a6b565b98975050505050505050565b7f596f752063616e27742062757920746869732070726f64756374000000000000600082015250565b6000610fb1601a83610e7c565b9150610fbc82610f7b565b602082019050919050565b60006020820190508181036000830152610fe081610fa4565b9050919050565b6000610ff282610e30565b9050919050565b61100281610fe7565b82525050565b6000819050919050565b600061102d61102861102384610e30565b611008565b610e30565b9050919050565b600061103f82611012565b9050919050565b600061105182611034565b9050919050565b61106181611046565b82525050565b600060608201905061107c6000830186610ff9565b6110896020830185611058565b6110966040830184610a6b565b949350505050565b60008115159050919050565b6110b38161109e565b81146110be57600080fd5b50565b6000815190506110d0816110aa565b92915050565b6000602082840312156110ec576110eb610a9f565b5b60006110fa848285016110c1565b91505092915050565b7f5472616e73666572206661696c65642e00000000000000000000000000000000600082015250565b6000611139601083610e7c565b915061114482611103565b602082019050919050565b600060208201905081810360008301526111688161112c565b9050919050565b7f4e487b7100000000000000000000000000000000000000000000000000000000600052601160045260246000fd5b60006111a982610a61565b91507fffffffffffffffffffffffffffffffffffffffffffffffffffffffffffffffff82036111db576111da61116f565b5b600182019050919050565b7f4e487b7100000000000000000000000000000000000000000000000000000000600052602260045260246000fd5b6000600282049050600182168061122d57607f821691505b6020821081036112405761123f6111e6565b5b50919050565b60008190508160005260206000209050919050565b60006020601f8301049050919050565b600082821b905092915050565b6000600883026112a87fffffffffffffffffffffffffffffffffffffffffffffffffffffffffffffffff8261126b565b6112b2868361126b565b95508019841693508086168417925050509392505050565b60006112e56112e06112db84610a61565b611008565b610a61565b9050919050565b6000819050919050565b6112ff836112ca565b61131361130b826112ec565b848454611278565b825550505050565b600090565b61132861131b565b6113338184846112f6565b505050565b5b818110156113575761134c600082611320565b600181019050611339565b5050565b601f82111561139c5761136d81611246565b6113768461125b565b81016020851015611385578190505b6113996113918561125b565b830182611338565b50505b505050565b600082821c905092915050565b60006113bf600019846008026113a1565b1980831691505092915050565b60006113d883836113ae565b9150826002028217905092915050565b6113f182610e71565b67ffffffffffffffff81111561140a57611409610b1d565b5b6114148254611215565b61141f82828561135b565b600060209050601f8311600181146114525760008415611440578287015190505b61144a85826113cc565b8655506114b2565b601f19841661146086611246565b60005b8281101561148857848901518255600182019150602085019450602081019050611463565b868310156114a557848901516114a1601f8916826113ae565b8355505b6001600288020188555050505b505050505050565b7f596f75277265206e6f7420616c6c6f77656420746f206564697420746869732060008201527f70726f6475637400000000000000000000000000000000000000000000000000602082015250565b6000611516602783610e7c565b9150611521826114ba565b604082019050919050565b6000602082019050818103600083015261154581611509565b9050919050565b7f596f75277265206e6f7420616c6c6f77656420746f2064656c6574652074686960008201527f732070726f647563740000000000000000000000000000000000000000000000602082015250565b60006115a8602983610e7c565b91506115b38261154c565b604082019050919050565b600060208201905081810360008301526115d78161159b565b9050919050565b60006115e982610a61565b9150600082036115fc576115fb61116f565b5b60018203905091905056fea2646970667358221220bae83065a7aeec1ba806a15c7e5aea4e0a132681e6cbed4418cc71f2cdba619064736f6c63430008110033",
  "devdoc": {
    "kind": "dev",
    "methods": {},
    "version": 1
  },
  "userdoc": {
    "kind": "user",
    "methods": {},
    "version": 1
  },
  "storageLayout": {
    "storage": [
      {
        "astId": 71,
        "contract": "contracts/Marketplace.sol:Marketplace",
        "label": "productsLength",
        "offset": 0,
        "slot": "0",
        "type": "t_uint256"
      },
      {
        "astId": 74,
        "contract": "contracts/Marketplace.sol:Marketplace",
        "label": "cUsdTokenAddress",
        "offset": 0,
        "slot": "1",
        "type": "t_address"
      },
      {
        "astId": 94,
        "contract": "contracts/Marketplace.sol:Marketplace",
        "label": "products",
        "offset": 0,
        "slot": "2",
        "type": "t_mapping(t_uint256,t_struct(Product)89_storage)"
      }
    ],
    "types": {
      "t_address": {
        "encoding": "inplace",
        "label": "address",
        "numberOfBytes": "20"
      },
      "t_address_payable": {
        "encoding": "inplace",
        "label": "address payable",
        "numberOfBytes": "20"
      },
      "t_mapping(t_uint256,t_struct(Product)89_storage)": {
        "encoding": "mapping",
        "key": "t_uint256",
        "label": "mapping(uint256 => struct Marketplace.Product)",
        "numberOfBytes": "32",
        "value": "t_struct(Product)89_storage"
      },
      "t_string_storage": {
        "encoding": "bytes",
        "label": "string",
        "numberOfBytes": "32"
      },
      "t_struct(Product)89_storage": {
        "encoding": "inplace",
        "label": "struct Marketplace.Product",
        "members": [
          {
            "astId": 76,
            "contract": "contracts/Marketplace.sol:Marketplace",
            "label": "owner",
            "offset": 0,
            "slot": "0",
            "type": "t_address_payable"
          },
          {
            "astId": 78,
            "contract": "contracts/Marketplace.sol:Marketplace",
            "label": "name",
            "offset": 0,
            "slot": "1",
            "type": "t_string_storage"
          },
          {
            "astId": 80,
            "contract": "contracts/Marketplace.sol:Marketplace",
            "label": "image",
            "offset": 0,
            "slot": "2",
            "type": "t_string_storage"
          },
          {
            "astId": 82,
            "contract": "contracts/Marketplace.sol:Marketplace",
            "label": "description",
            "offset": 0,
            "slot": "3",
            "type": "t_string_storage"
          },
          {
            "astId": 84,
            "contract": "contracts/Marketplace.sol:Marketplace",
            "label": "location",
            "offset": 0,
            "slot": "4",
            "type": "t_string_storage"
          },
          {
            "astId": 86,
            "contract": "contracts/Marketplace.sol:Marketplace",
            "label": "price",
            "offset": 0,
            "slot": "5",
            "type": "t_uint256"
          },
          {
            "astId": 88,
            "contract": "contracts/Marketplace.sol:Marketplace",
            "label": "sold",
            "offset": 0,
            "slot": "6",
            "type": "t_uint256"
          }
        ],
        "numberOfBytes": "224"
      },
      "t_uint256": {
        "encoding": "inplace",
        "label": "uint256",
        "numberOfBytes": "32"
      }
    }
  }
}